:020000040800F2
:100000007049002099020008351D0008F919000800
:10001000711C0008C9030008372100080000000017
:10002000000000000000000000000000D9010008EE
:10003000190400080000000035020008391D0008FE
:10004000B3020008B3020008B3020008B3020008BC
:10005000B3020008B3020008B3020008B3020008AC
:10006000B3020008B3020008B3020008B30200089C
:10007000B3020008B3020008B3020008B30200088C
:10008000B3020008B3020008B3020008B30200087C
:10009000CD030008B3020008B3020008B302000851
:1000A000B3020008091E0008B3020008B3020008EA
:1000B000B3020008B3020008B3020008B30200084C
:1000C000B3020008B3020008B3020008B30200083C
:1000D000B3020008B3020008B3020008B30200082C
:1000E000B3020008B3020008B3020008B30200081C
:1000F000B3020008B3020008B3020008B30200080C
:10010000B3020008B3020008B3020008B3020008FB
:10011000B3020008DD1E0008B3020008B3020008A5
:10012000B3020008B3020008B3020008B3020008DB
:10013000B30200080000000000000000B302000845
:10014000B3020008B3020008B3020008B3020008BB
:10015000B3020008B3020008B3020008B3020008AB
:10016000B3020008B3020008B3020008B30200089B
:10017000B3020008B3020008B30200080000000048
:1001800000000000B30200080000000000000000B2
:10019000B30200080000000000000000B3020008E5
:1001A000000000000000000000000000B302000892
:1001B000B3020008B3020008B3020008B30200084B
:1001C000B3020008DFF80CD000F0ECF8004800475C
:1001D000FD210008704900202C4B19680868B0E820
:1001E000F04F80F30988BFF36F8F4FF0000080F36A
:1001F000118870470000000008480068006880F31C
:1002000008884FF0000080F3148862B661B6BFF32F
:100210004F8FBFF36F8F00DF00BF00BF08ED00E01E
:10022000DFF80C00016841F470010160704700BF05
:1002300088ED00E0EFF30980BFF36F8F134B1A686E
:100240001EF0100F08BF20ED108A20E9F04F10605B
:1002500009B44FF0500080F31188BFF34F8FBFF304
:100260006F8F02F08BFB4FF0000080F3118809BC08
:1002700019680868B0E8F04F1EF0100F08BFB0EC26
:10028000108A80F30988BFF36F8F70471800002031
:10029000EFF3058070470000064880470648004796
:1002A000FEE7FEE7FEE7FEE7FEE7FEE7FEE7FEE726
:1002B000FEE7FEE7ED1D0008C50100082DE9F05F2F
:1002C0000546002092469B468846064681464024C5
:1002D0001BE0284641464746224600F053F8534665
:1002E0005A46C01A914110D311461846224600F0D2
:1002F0003AF82D1A67EB01084F46224601200021EB
:1003000000F031F817EB00094E41201EA4F1010462
:10031000DFDC484631462A464346BDE8F09F40EAC6
:1003200001039B0703D009E008C9121F08C0042A73
:10033000FAD203E011F8013B00F8013B521EF9D25A
:100340007047D2B201E000F8012B491EFBD2704782
:100350000022F6E710B513460A4604461946FFF791
:10036000F0FF204610BD202A04DB203A00FA02F1FB
:10037000002070479140C2F1200320FA03F3194393
:1003800090407047202A04DB203A21FA02F0002135
:10039000704721FA02F3D040C2F120029140084395
:1003A00019467047064C074D06E0E06840F001032F
:1003B00094E8070098471034AC42F6D3FFF706FFE5
:1003C000442D0008642D0008FEE70000014800F0FD
:1003D00096B90000F002002070B50E4C1546064696
:1003E000216000216160A160C4E90313012321465B
:1003F00000F026F860B102232A462146304600F07C
:100400001FF828B104232A462146304600F018F888
:10041000002070BD840000207047704790F82020B5
:10042000012A07D0022A05D0416A41F480214162A5
:1004300001207047006842690A434261002070470A
:10044000F0B590F820500468A468012D05D0022D65
:1004500003D0416A41F4802153E014F0406F01D190
:10046000E5004BD5C4F30164022C03D9416A41F481
:10047000000146E00125A5401D608D684FF4C07362
:100480009DB1CE6835434E6845EAC605066803EB64
:100490000417F5514FF4C275076805EB04150E6992
:1004A0007E51097D012905D009E00E88CD6845EA15
:1004B0004655EBE701684E5946F480764E51117966
:1004C000D2F805504FF4C67641EA0525016806EBDF
:1004D00004168D511178D2F801204FF4C47541EA09
:1004E0000221026805EB04155151006803EB041169
:1004F000425842F0010242500020F0BD416A41F4EE
:10050000001141620120F0BD10B590F82020012AB1
:1005100007D0022A05D0416A41F4802141620120BE
:1005200010BD3B48D0F8002242F00102C0F8002282
:10053000D0F8002222F47C52C0F80022D0F8002229
:100540004B6A42EA0322C0F800220A7D02F01F0330
:1005500001229A40D0F81C329343C0F81C32CB6978
:10056000B3B9D0F80C329343C0F80C328C894B6885
:1005700064F31F434C6900EBC404C4F840320C8997
:100580000B6864F31F434C6900EBC404C4F84432A5
:10059000CB69012B16D1D0F80C321343C0F80C32C2
:1005A0000C884B6864F31F434C6900EBC404C4F827
:1005B00040320C89CB6864F31F434C6900EBC404E0
:1005C000C4F844328B69002BD0F804320ED01343A8
:1005D000C0F804320B69002BD0F8143208D0134352
:1005E000C0F81432096A012904D008E09343EFE708
:1005F0009343F5E7D0F81C121143C0F81C12D0F851
:10060000001221F00101C0F80012002010BD00000E
:1006100000640040704730B590F82040012C05D0B0
:10062000022C03D0416A41F480215DE00468002976
:1006300055D02469A40754D04FF4D874056804EB4E
:1006400001142D5915F00405956005682D594ED0FB
:10065000ED08556005682C5904F00204D4604FF48D
:10066000DA74056804EB01142D5905F00F051561C6
:1006700005682D59C5F30725956105682C59240C8B
:1006800054614FF4DC72046802EB0112A4581C7030
:100690000468A458240A5C700468A458240C9C7054
:1006A0000468A258120EDA704FF4DE72046802EB8E
:1006B0000112A4581C710468A458240A5C710468CF
:1006C000A458240C9C710468A258120EDA710068B8
:1006D00081B1016941F020010161002030BDE46871
:1006E000A8E7416A41F400114162012030BD6D0D5F
:1006F0001560AFE7C16841F02001C160EDE72DE969
:10070000F05F0546006800244669D0F804908768C9
:10071000D0F80CB0D0F810A0D0F81880F10748D06D
:10072000F90714D001218160B80703D5284600F0ED
:10073000E0FA0CE0780702D54FF4006407E03807D0
:1007400002D54FF4805402E0284600F0D1FAF805B3
:1007500016D529684FF480708860B80503D52846FF
:1007600000F0C9FA0CE0780502D544F4005407E023
:10077000380502D544F4804402E0284600F0BAFA75
:10078000F80316D529684FF480308860B80303D584
:10079000284600F0B2FA0CE0780302D544F4004495
:1007A00007E0380302D544F4803402E0284600F024
:1007B000A3FA300707D55FEACB6004D5296810207B
:1007C00044F40074C86070074FF0080707D55FEA6B
:1007D0000B7004D52868C760284600F097F9B00769
:1007E00006D52868C068800702D0284600F090F936
:1007F000700607D55FEACA6004D52968102044F462
:1008000080640861B00607D55FEA0A7004D52868DD
:100810000761284600F03CFAF00606D52868006912
:10082000800702D0284600F034FAB00308D55FEA0A
:10083000C96005D5296810204860284600F02AFACA
:10084000F00307D55FEA097004D528684760284699
:1008500000F054FA300446D55FEA497040D5F005FF
:1008600004D55FEAC87001D044F00104B00504D596
:100870005FEA887001D544F00204700504D55FEA90
:10088000487001D544F00404300529D518F0700FE4
:1008900026D008F07000402815D006DC102809D0BA
:1008A00020280AD0302816D10AE050280ED060281F
:1008B00011D10EE044F008040DE044F010040AE009
:1008C00044F0200407E044F0400404E044F08004D5
:1008D00001E044F480742868816921F0700181612D
:1008E000296804204860002C05D0686A20436862AB
:1008F0002846FFF78FFEBDE8F09F70B5040003D0D7
:1009000094F8200010B104E0012070BD204600F0F2
:1009100081F82068016821F00201016000F0EEFA20
:100920000546052604E000F0E9FA401B0A2811D824
:10093000206840688007F6D42068016841F0010112
:10094000016000F0DBFA05460BE000F0D7FA401B2F
:100950000A2806D9606A40F40030606284F820609A
:10096000D2E720684068C007EFD0207E01282068C9
:1009700001683DD021F080010160607E012820687F
:10098000016838D021F040010160A07E0128206874
:10099000016833D021F020010160E07E0128206849
:1009A00001682ED041F010010160207F01282068ED
:1009B000016829D021F008010160607F01282068CA
:1009C000016824D021F004010160D4E90201084348
:1009D000D4E90412114308436168491E08432168A1
:1009E000C86100206062012084F82000002070BDF2
:1009F00041F08001C0E741F04001C5E741F020012E
:100A0000CAE721F01001CFE741F00801D4E741F037
:100A10000401D9E72DE9F04387B004461421684664
:100A2000FFF796FC354B3648DFF8CC801968D4F8D0
:100A300000C0334A022503260927DFF8C89010308A
:100A40000024491CC44528D11960012907D1016837
:100A500041F000710160006800F0007005901068BE
:100A600040F002001060106802AB00F00200059038
:100A70004FF44070CDE9000583E8D0006946484650
:100A800000F062F900221146142000F0BFFA142091
:100A900000F0AEFA07B0BDE8F083DFF86C80C44523
:100AA000F8D1D0F800C04CF0806CC0F800C0D0F88D
:100AB00000C001290CF0806CCDF814C0196007D17A
:100AC000016841F000710160006800F0007005905D
:100AD000106840F002001060106802AB00F00200E5
:100AE00005904FF44050CDE9000583E8D0006946F9
:100AF000484600F029F9CDE70064004004000020DA
:100B00003038024000040240006800407047000096
:100B100010B50068594988427ED1594B002103F134
:100B200008025848FFF777FD002875D1544A503A1B
:100B30009FED552ADFED552A906D02282FD1B2F88E
:100B40005100F2EE090A40BA106092F85310BAEE62
:100B5000090A0B0192F8541043EA1113D36092F87A
:100B6000553001F00F0143EA01219161102101F09C
:100B7000C9FD82ED090A0C21F0EE420AB0EE620ACC
:100B8000D06801F0BFFD82ED0C0A0C21F3EE020AE1
:100B9000BBEE020A906901F0B5FD82ED0F0A906D7F
:100BA00003282FD1B2F85100F2EE090A40BA506082
:100BB00092F85310BAEE090A0B0192F8541043EA66
:100BC0001113136192F8553001F00F0143EA01212E
:100BD000D161102101F096FD82ED0A0A0C21F0EEA0
:100BE000420AB0EE620A106901F08CFD82ED0D0A36
:100BF0000C21F3EE020ABBEE020AD06901F082FD7D
:100C000082ED100A906D042831D1B2F8510040BA3B
:100C1000906092F8531000E02FE00B0192F854100E
:100C2000F2EE090A43EA1113536192F8553001F0CC
:100C30000F0143EA012111621021BAEE090A01F005
:100C400061FD82ED0B0A0C21F0EE420AB0EE620A61
:100C5000506901F057FD82ED0E0A0C21F3EE020AF5
:100C6000BBEE020A106A01F04DFD82ED110ABDE8EB
:100C7000104002210348FFF7D1BB10BD00640040C3
:100C800048410020F002002000003442000034C23D
:100C9000704770477047000070B5044690F8200018
:100CA000012804D0606A40F40020606218E002204D
:100CB00084F820002068016821F00101016000F043
:100CC0001DF905460EE000BF00F018F9401B0A2888
:100CD00008D9606A40F400306062052084F8200082
:100CE000012070BD20684068C007EDD1606270BD12
:100CF000704770477047704770477047704790F86B
:100D00003510022903D0802141650120704705215B
:100D100080F835100068016821F0010101600020B1
:100D20007047000070B5044600F0E8F80546601C06
:100D300002D004480078044400F0E0F8401BA042D0
:100D4000FAD370BD080000202DE9F84F00224FF0C3
:100D5000010803254FF00F0E0B6808FA02F4234038
:100D6000A3426ED14E68012E05D0022E03D0112E63
:100D700001D0122E12D186684FEA420C05FA0CF708
:100D8000BE43CF6807FA0CF7374387604668A6432F
:100D90000C79C4F30014944034434460C66857008F
:100DA00005FA07FC8C6826EA0C06BC403443C46094
:100DB0004C68022C01D0122C13D1D40800EB84040F
:100DC000A346D4F8209054074FEAD46A0EFA0AF6E4
:100DD00029EA06090E6906FA0AF646EA0906CBF878
:100DE000206006680C7926EA0C0604F00304BC4077
:100DF000344304604C68E40060D5334C266846F404
:100E000080462660246822F0030604F4804400949F
:100E10002E4C3444A446D4F808489607370F0EFAEF
:100E200007F6B4432A4EB04201D100261FE0294EF6
:100E3000B04201D101261AE0274EB04202D102266B
:100E400015E03BE0254EB04201D103260FE0244ED1
:100E5000B04201D104260AE0224EB04201D105265B
:100E600005E0214EB04201D1062600E00726BE4033
:100E70002643CCF808681D4E34684F689C43FF0336
:100E800000D51C433460194E361D34684F689C43AE
:100E9000BF0300D51C433460144E083634684F68D5
:100EA0009C43FF0200D51C433460104E0C3634685E
:100EB0004F689C43BF0200D51C433460521C102A6B
:100EC000FFF44AAFBDE8F88F4438024000300140DB
:100ED000000002400004024000080240000C0240F2
:100EE000001002400014024000180240003C014083
:100EF0000AB1816170470904FBE70000014880687E
:100F00007047000008000020024881680278114400
:100F100081607047080000200B4810B5016841F45B
:100F200000710160016841F480610160016841F471
:100F300080710160032000F089F80F2000F006F8AE
:100F400000F03EF8002010BD003C024010B5014604
:100F500088B00022192000F059F8192000F048F854
:100F600013480024016841F001010160006805A9EF
:100F700000F001000690684600F014F900F042F914
:100F80000C494000B0FBF1F10C480B4A491E0260CD
:100F900040F2E732C0E90324C0E9011400F032FB5B
:100FA00010B1012008B010BD044800F047FBF9E77C
:100FB0004438024040420F000000014080030020FE
:100FC0000A4808B5016841F480410160006800F4F6
:100FD000804000900548001F016841F08051016089
:100FE000006800F08050009008BD000044380240C6
:100FF000002809DB00F01F02012191404009800018
:1010000000F1E020C0F8001170470000F0B40E4B72
:101010001B680C46C3F30223C3F10705042D00D956
:101020000425191D072901D2002300E0DB1E01263B
:1010300006FA05F1491E214099409E40761E164051
:101040003143F0BC01F078B80CED00E0064900F047
:10105000070208684FF6FF03184040EA0220034ADF
:1010600010430860704700000CED00E00000FA0536
:101070002DE9F0470E46050065D0DFF81481D8F859
:101080000000F7B200F00F00B04207D288F80070FD
:10109000D8F8000000F00F00B04254D128683D4C51
:1010A000810712D5400703D5206840F4E050206046
:1010B0002878000703D5206840F46040206020684D
:1010C000A96820F0F000084320602878C0072DD0E0
:1010D000304968680839012812D0022813D0032843
:1010E00011D00968890700292DDA216821F0030150
:1010F00001432160FFF702FF814641F2883A0EE08A
:1011000009688903EFE709688901ECE7FFF7F6FE54
:10111000A0EB0901514502D90320BDE8F087206802
:10112000696800F00C00B0EB810FEFD1D8F8001027
:10113000404601F00F01B14207D90770006800F086
:101140000F00B04201D00120E7E72878400705D51D
:101150002068E96820F4E050084320602878000700
:1011600006D52068296920F4604040EAC10020606B
:1011700000F058F82168084AC1F30311515CC840D7
:101180000649086006480068FFF7E0FE0020C4E753
:10119000003C024008380240242D000814000020C2
:1011A0000C0000200F2202600C4A136803F00303B6
:1011B0004360136803F0F0038360136803F4E053A3
:1011C000C36012684FF4E05303EAD202026104489C
:1011D000006800F00F000860704700000838024007
:1011E000003C02400448054900680968044AC1F30C
:1011F0008221515CC840704714000020083802402A
:10120000342D00080448054900680968044AC1F300
:101210004231515CC8407047140000200838024039
:10122000342D0008224810B5006810F00C02214847
:1012300015D02149042A11D01D4C241F082A0FD093
:101240000C2A0CD12268236802F03F025B0221D5F0
:101250002068C0F38810A0FB010120E0084610BD03
:101260002268236802F03F025B0205D52068C0F3C4
:101270008810A0FB010104E02168C1F38811A1FBE3
:1012800000010023FFF71AF82168C1F30141491C4E
:1012900049000AE02168C1F38811A1FB0001002385
:1012A000FFF70CF82168C1F30271B0FBF1F010BD3B
:1012B000083802400024F400001BB7002DE9F84F65
:1012C0000546DFF828B30078ABF10407C007A7F1A3
:1012D000040451D0DBF800105846C1F38101012904
:1012E0000FD00168C1F38101022902D13968490296
:1012F00007D40068C0F38100032809D13868400290
:1013000006D52068800337D56868002872D033E09E
:101310006868B0F5803F10D0B0F5A02F206810D0DD
:1013200020F480302060206820F4802020606868ED
:10133000A8B1FFF7E3FD06460DE0206840F48030D9
:10134000F4E740F480202060F7E700BFFFF7D6FD08
:10135000801B642878D820688003F7D50CE0FFF75D
:10136000CDFD064605E000BFFFF7C8FD801B6428E1
:10137000F0D820688003F7D42878DFF874928007CB
:101380004FF0000A46D5DBF80010584611F00C0F5C
:101390000FD00168C1F38101022902D139684902E5
:1013A00007D50068C0F38100032809D138684002DE
:1013B00006D42068800715D5E86801281AD111E005
:1013C000E868C0B10120C9F80000FFF797FD0646A4
:1013D00005E000BFFFF792FD801B0228BAD8206805
:1013E0008007F7D52068296920F0F80040EAC1009D
:1013F00020600FE0F7E0C9F800A0FFF77FFD064688
:1014000005E000BFFFF77AFD801B02281CD820688A
:101410008007F7D42878000727D5DFF8D0817548F2
:10142000696908F16C0881B101210160FFF766FD6F
:10143000064604E0FFF762FD801B022804D8D8F8B6
:1014400000008007F6D510E089E0C0F800A0FFF7A3
:1014500055FD064605E000BFFFF750FD801B022842
:101460007DD8D8F800008007F6D42878400769D5E1
:101470005E484FF0000838300068C0000BD45B486D
:101480003830016841F08051016000684FF0010878
:1014900000F080500090584E3068C00511D430687C
:1014A00040F480703060FFF729FD009006E000BF37
:1014B000FFF724FD0099401A022850D83068C00573
:1014C000F6D54A4EA868683601280FD0052830683E
:1014D00010D020F001003060306820F0040030604F
:1014E000A868B8B1FFF70AFD00900FE0306840F03F
:1014F0000100F4E740F004003060F7E7FFF7FEFC7E
:101500000099411A41F28830814264D830688007DE
:10151000F4D50EE0FFF7F2FC009007E0FFF7EEFCD9
:101520000099411A41F28830814254D830688007CE
:10153000F4D4B8F1000F05D02C483830016821F000
:1015400080510160A869A8B3DBF80010C1F38101E4
:10155000022948D00228C9F860A005D000E03AE08E
:10156000FFF7CCFC054639E0FFF7C8FC064604E06F
:10157000FFF7C4FC801B02282DD820688001F7D417
:10158000F5E907010843E9681C4A490802EB0141F3
:10159000AA6841EA82110843297C40EA0160297D5A
:1015A00040EA017038600120C9F86000FFF7A6FC2E
:1015B000054606E015E000BFFFF7A0FC401B02282F
:1015C00009D820688001F7D50BE000BFFFF796FC33
:1015D000401B022802D90320BDE8F88F2068800153
:1015E000F4D40020F8E70120F6E7000008380240B4
:1015F00000004742800E4742007000400000FFFF9D
:101600007047704710B5040003D094F83D0010B146
:1016100007E0012010BD002084F83C00204600F0C7
:101620000CF8022084F83D00211D206800F0F2FB38
:10163000012084F83D00002010BD70470168CA6891
:1016400042F00102CA600068816801F007010629C2
:1016500003D0016841F0010101600020704770472C
:1016600070B50446006801694FF00005C943890759
:1016700015D4C168C943890711D4E91E016101204D
:101680002077206880698007204602D0FFF7E7FFB7
:1016900004E000F098F8204600F096F825772068DE
:1016A0000169C943490717D4C168C943490713D41D
:1016B0006FF004010161022020772068806910F436
:1016C000407F204602D0FFF7CAFF04E000F07BF81D
:1016D000204600F079F8257720680169C943090799
:1016E00016D4C168C943090712D46FF0080101611B
:1016F000042020772068C0698007204602D0FFF7C9
:10170000AEFF04E000F05FF8204600F05DF82577BA
:1017100020680169C943C90617D4C168C943C9060D
:1017200013D46FF010010161082020772068C06990
:1017300010F4407F204602D0FFF791FF04E000F054
:1017400042F8204600F040F8257720680169C94337
:10175000C90708D1C168C943C90704D1891E0161FD
:10176000204600F033F820680169C943090609D40E
:10177000C168C943090605D46FF0800101612046A4
:10178000FFF73EFF20680169C943490609D4C168D3
:10179000C943490605D46FF040010161204600F0BD
:1017A0001FF820680169C94389060BD4C168C94381
:1017B000890607D46FF0200101612046BDE8704022
:1017C000FFF71FBF70BD70477047000000680349F6
:1017D000884201D1FFF798BB70470000000001402C
:1017E0007047704770B5026804461068D168536945
:1017F00010F00F0F52D003F0010501F490762E4344
:101800005FD0C20705D0CA0503D5E26B42F00102E2
:10181000E263420705D5DA0703D0E26B42F0020229
:10182000E263820705D5DA0703D0E26B42F00402D7
:10183000E263020707D501F020022A4303D0E26BDE
:1018400042F00802E263E26B002A33D0800604D53E
:10185000880602D5204600F05DFB20684069E16BF8
:10186000C0F38010090700D428B3204600F044FBE1
:101870002068416949061AD5416921F0400141615A
:10188000606BA0B11B490165606BFFF738FA002857
:1018900010D0606B016DBDE870400847830610D51D
:1018A0008B060ED52046BDE8704000F033BB2046C5
:1018B000FFF797FF70BD2046FFF793FF0020E0631E
:1018C00070BD030606D50B0604D52046BDE8704062
:1018D00000F000BC4006F3D54806F1D5D16820469B
:1018E00021F04001D160202184F8391000F083F804
:1018F00070BD0000E91E000870B5040004D094F823
:101900003900002510B106E0012070BD84F8385080
:10191000204600F023F8242084F839002068C168AC
:1019200021F40051C160204600F040FB20680169AD
:1019300021F4904101612068416921F02A0141614F
:101940002068C16841F40051C160E563202084F83B
:10195000390084F83A00002070BD0000F0B587B06F
:10196000044614216846FEF7F3FC1E4920688842AD
:1019700035D11D48016841F480110160006800F410
:101980008010059018481038016841F0040101608A
:10199000016801F004010591016841F0080101604E
:1019A0000068022400F0080005904FF480500125E3
:1019B000032608278DE8F10069460C48FFF7C4F9B3
:1019C00004208DE8F10069460948FFF7BDF90022BF
:1019D00011463520FFF71AFB3520FFF709FB07B04A
:1019E000F0BD0000005000404038024000080240B6
:1019F000000C024070477047FEE700002DE9F041FF
:101A0000B0EE413AF0EE602A04460F461020B2EEE6
:101A1000091AFAEE090A00F0DDFB06460C209FEDDC
:101A20002F1ADFED2F0AB0EE620A00F0D3FBDFEDD4
:101A30002E2A05460C209FED2B1AF0EE620AB0EE1E
:101A4000430A00F0C7FB03460C20B1EE041AF0EE87
:101A5000620AB0EE610A00F0BDFB02460C20B3EE54
:101A6000021AFBEE020AB0EE420A00F0B3FB1F4975
:101A70000F6000278F60CF6008270F614831370A59
:101A800001F8487F4E702E092D018E7045EA13250E
:101A9000CD700B7113094B71120142EA10228A7149
:101AA000124AC87190320123154610492046FEF7AC
:101AB000C7FC00280FD002232A460C492046FEF717
:101AC000BFFC002807D02A462046BDE8F041042389
:101AD0000649FEF7B5BCBDE8F081000000003442C5
:101AE000000034C20000FA4300000000B0400020B3
:101AF0000F4810B50D4901600221416000214FF4EB
:101B000060228160C0E903124FF4800242610176D5
:101B100041768176C17601774177FEF7EEFE0028A7
:101B200003D0BDE81040FEF778BC10BD0064004053
:101B3000F00200200F4810B50D49016010214160EE
:101B400000214FF460228160C0E903124FF480024B
:101B50004261017641768176C17601774177FEF761
:101B6000CCFE002803D0BDE81040FEF756BC10BDE7
:101B7000006800401803002000B587B01C22064909
:101B80006846FEF7CCFB0021684600F069FB03497C
:101B9000086007B000BD0000082D0008000000200C
:101BA00030B587B014216846FEF7D2FB20480024E8
:101BB000016841F004010160016801F00401059130
:101BC000016841F080010160016801F08001059128
:101BD000016841F002010160016801F00201059114
:101BE000016841F001010160016801F00101059106
:101BF000016841F00801016000680E4D00F0080026
:101C00000122059051032846FFF772F900220121B5
:101C10002846FFF76DF9681400900120CDE9010412
:101C2000694628460394FFF78FF807B030BD0000DF
:101C300030380240000802400C4810B50A490160E3
:101C40004FF461214160002181600C22C160C0E934
:101C500004128161C161FFF74FFE002803D0BDE887
:101C60001040FEF7DABB10BD0050004040030020DA
:101C7000FEE700F005F8012000F0E6FAF9E70000C1
:101C800010B5184C9FED180A207890B101281AD091
:101C900002280DD1B0EE402AF7EE001AB0EE401A3D
:101CA000F0EE000A04211148FFF7A8FE0020207082
:101CB00010BDB0EE402AF7EE001AB0EE401AF0EE7A
:101CC000000A022108E0B0EE402AF7EE001AB0EE5A
:101CD000401AF0EE000A03210448FFF78FFE207837
:101CE000401CE4E77800002000000000F002002023
:101CF00010B508230D4A02210D48FEF76DFB0A209E
:101D0000FFF710F80823094A03210948FEF764FB8E
:101D10000A20FFF707F80823044A04210448FEF7C5
:101D20005BFBBDE810400A20FEF7FCBF79000020F5
:101D3000F00200207047000010B5502080F3118899
:101D4000BFF34F8FBFF36F8F00F018FF18B1044936
:101D50004FF080500860002080F3118810BD000013
:101D600004ED00E030B593B034216846FEF7F0FA98
:101D700014210DA8FEF7ECFA1A480025016841F07D
:101D800080510160006800F0805012901648016890
:101D900041F4404101600068022400F44040129088
:101DA00001200090000401908001CDE9064006204A
:101DB0000890A820CDE909040720CDE90B04684666
:101DC000FFF77CFA0DA90F2081E831004FF4A050F5
:101DD0001090E002119005210DA8FFF749F913B00A
:101DE00030BD0000403802400070004005480168E6
:101DF00041F47001016003494FF0006080390860D0
:101E00007047000088ED00E00148FFF729BC0000A2
:101E100080030020F0B50268254C264D264E274F42
:101E2000274B4FF0804CA04209D0604507D0A84214
:101E300005D0B04203D0B84201D0984204D122F07C
:101E4000700E4A6842EA0E02A0421BD0604519D0CB
:101E5000A84217D0B04215D0B84213D0984211D042
:101E6000184DA8420ED0184DA8420BD0174DA842CD
:101E700008D0174DA84205D0164DA84202D0164DE5
:101E8000A84203D122F44075CA682A434D6922F062
:101E900080022A4302608A68C2620A688262A042A3
:101EA00001D0984201D10969016301214161F0BD6E
:101EB000000001400004004000080040000C004009
:101EC000000401400040014000440140004801403E
:101ED00000180040001C0040002000400148FFF7AF
:101EE00081BC00004003002010B5806B0021C1853B
:101EF000C184FFF776FC10BD0168CA6822F49072B5
:101F0000CA6001684A6922F001024A61202180F812
:101F10003A10704710B590F83A10222901D00220EB
:101F200010BD8168B1F5805F11D001690029016899
:101F30001FD0496801F07F03816A4A1C82620B70DE
:101F4000C18D491E0904090CC18518D02BE0026916
:101F5000816A002A0268526805D0D2B20A80816A7A
:101F6000491C8162ECE7C2F308020A80816A891C7D
:101F7000F7E74A68816A4B1C83620A70E0E70168F0
:101F8000CA6822F02002CA600168CA6822F480721E
:101F9000CA6001684A6922F001024A61202180F882
:101FA0003A10FFF727FD002010BD00002DE9F04199
:101FB000044600680169E26821F44051114301615F
:101FC0002169A068E26908436169114308432168F7
:101FD000CA6849F20C639A430243CA6020684169A7
:101FE000A26921F4407111434161E0691927642518
:101FF0003226B0F5004F354A354920684FF00008C9
:1020000006D0884201D0904236D1FFF7FBF835E088
:10201000884201D0904202D1FFF7F4F801E0FFF7C7
:10202000E1F861684A18A0FB070148EB0803FEF7D6
:1020300045F90146B0FBF5F00201B1FBF5F06FF098
:102040001803584301EB800006EBC000B0FBF5F02D
:1020500000F0F80002EB4002B1FBF5F0584301EB51
:10206000800006EBC000B0FBF5F000F0070021682F
:1020700010448860BDE8F081FFF7B4F861688B0F09
:102080008A00A0FB0701FEF719F90146B0FBF5F045
:102090006FF01802504301EB800006EB0010B0FB1C
:1020A000F5F000F0F002B1FBF5F002EB0012B1FB2D
:1020B000F5F06FF01803584301EB800006EB0010B9
:1020C000B0FBF5F000F00F00D1E700000014014074
:1020D0000010014090F83910212901D002207047EA
:1020E0008168B1F5805F016A0BD04A1C0262026808
:1020F00009785160C18C491E0904090CC1840ED0B5
:1021000017E009880268C1F30801516001690029DC
:10211000016A02D0491C0162ECE7891CFBE70168F7
:10212000CA6822F08002CA600068C16841F04001BC
:10213000C16000207047FEE70907090E002804DB94
:1021400000F1E02080F80014704700F00F0000F16B
:10215000E02080F8141D704702E008C8121F08C173
:10216000002AFAD170477047002001E001C1121F18
:10217000002AFBD17047000000B58BB00020012180
:10218000CDE906010891009001900290039005901E
:10219000049069460E48FEF7B7F90D48FEF77CFD3E
:1021A00002210B48FEF73AF90E20099005900848E5
:1021B00069462830FEF7A8F905482830FEF76CFD7F
:1021C000034802212830FEF729F90BB000BD0000BA
:1021D000F0020020012131EE601A814070EE600AA9
:1021E000491E00EE101AB8EEC00A20EE800AC0EEBA
:1021F000010ABDEEE00A10EE100A7047FEF78CFEF1
:10220000FFF7B0FDFFF7CCFCFFF772FCFFF792FC85
:10221000FFF712FD012251030748FEF769FEFFF7A1
:10222000ABFF4FF47A70FEF77DFDFFF761FDFFF71E
:10223000A3FC00F010F8FEE7000802400146002071
:10224000842900D0C81C704710B500B9012000F0E7
:1022500031FB002010BD10B500F052FB002010BD76
:102260007FB50D4604464169B0F9080081B1A16906
:1022700071B1FFF7E3FFD4E905128DE80700D4E957
:1022800000102B46226900F04EFC039004B070BD94
:10229000FFF7D4FF03A9CDE90001208A2B4682B2C3
:1022A000D4E9001000F012FC012801D00020EDE775
:1022B0000398EBE72DE9F041184C0F460546666997
:1022C0002068001D00F032FA38B9206890F82C1010
:1022D00001208840A1698143A161681C07D137B101
:1022E0002168BDE8F0410E48091D00F063BA20687E
:1022F0003544B5424560216805D2A068BDE8F0418B
:10230000091D00F03FBA6068091D00F03BFA206B20
:10231000854200D22563BDE8F0810000180000204E
:102320009C0400202DE9F041054600F04FFA2E4CA8
:102330002069401C206120682C4F10B1E06940B337
:102340002DE025602069012829D1002606EB8600B2
:1023500007EB800000F008FA761C072EF6D323481E
:102360008C3000F001FA2148A03000F0FDF91F4840
:10237000B43000F0F9F91D48C83000F0F5F91B48F9
:10238000DC3000F0F1F919488C3060601430A06046
:1023900005E02068E96AC06A884200D82560E06AE2
:1023A000401CE062E96A0120A26988401043A061F4
:1023B00001EB810007EB8000291D00F0FBF900F024
:1023C00025FAE06900280CD02068E96AC06A8842D2
:1023D00007D207494FF080500860BFF34F8FBFF31B
:1023E0006F8FBDE8F081000018000020C0030020BE
:1023F00004ED00E010B5044690F8510058B10128F2
:102400000CD002280FD0502080F31188BFF34F8FDB
:10241000BFF36F8FFEE7206B00F00CFA2046BDE89B
:10242000104000F007BA10BD10484FF47051420739
:1024300006D0C01D0D4920F00700411AC1F57051AA
:102440000B4A00230144C2E900030839103A21F085
:10245000070111604B600B600B1AC0E90013936019
:102460004FF000405360D06070470000B00400207F
:1024700064000020144E154CA6F1C8074FF0805898
:10248000DFF84C9012E000BF00F0A0F9F068C568DA
:10249000281D00F04BF92069401E2061E068401EB5
:1024A000E06000F0B3F92846FFF7A4FFE0680028D9
:1024B000EAD138680128F9D9C9F80080BFF34F8FF5
:1024C000BFF36F8FF2E7000088040020180000209F
:1024D00004ED00E02DE9F0479A46DDE909848146E4
:1024E0006FF00303206B03EB82021044089E20F080
:1024F0000707780707D0502080F31188BFF34F8F6C
:10250000BFF36F8FFEE7002561B1002023180A5C3E
:1025100083F834200A5C12B1401C1028F6D384F8EA
:10252000435001E084F83450072E00D30626E662BB
:10253000C4E91165201D00F022F904F1180000F033
:102540001EF92461C6F107006462A061E56484F8A5
:10255000505052464946384600F0BEF82060B8F167
:10256000000F01D0C8F80040BDE8F08730B5114930
:1025700000E011460A688242FBD34B685C18844233
:1025800003D1406818444860084643681C189442C8
:1025900009D1084C103C2468A24209D052681A4460
:1025A00042600A6812680260814200D0086030BD53
:1025B0000460F9E76400002006484168096829B111
:1025C0004168C968C9684968016370474FF0FF31C5
:1025D000FAE700001800002008484068401C4FF04F
:1025E000500080F3118804D0BFF34F8FBFF36F8F7B
:1025F000FEE7BFF34F8FBFF36F8FFEE76C00002045
:102600002DE9F0410546002700F0B0F9314E306861
:1026100008B9FFF709FFF06805424BD1C5B308358B
:1026200068070ED005F00700C0F1080005446807F0
:1026300007D0502080F31188BFF34F8FBFF36F8F07
:10264000FEE72DB37068854234D822481030014629
:102650000C6801E020460C466168A94202D221685C
:102660000029F7D131688C4224D0076821680160C5
:1026700060680837411B10290FD96019420708D03C
:10268000502080F31188BFF34F8FBFF36F8FFEE7A9
:1026900010E041606560FFF769FF61687068401A8B
:1026A0007060B268904200D2B060F06801430020D0
:1026B000C4E9000100F0C6FA780707D0502080F383
:1026C0001188BFF34F8FBFF36F8FFEE73846BDE829
:1026D000F08100005400002010B5031F4FF08074FB
:1026E0001C601B1F21F001011960191F044B0B60B6
:1026F00014390A60091F6FF0020244380A6010BDE5
:10270000D925000801EE100A70EEC00A0120B8EECB
:10271000C11A8840401E21EE201A00EE900AF8EE01
:10272000E01AC1EE210A30EE800A7047D0E901328A
:1027300001699A60D0E901235A604A68824201D156
:1027400082684A60002202610868401E08600868CA
:1027500070470000034B036003F1540008608020C1
:10276000106070479C00002000F108014FF0FF321C
:10277000C0E90112C16001610021016070470021C0
:102780000161704730B50B685A1C02D000F1080295
:1027900002E0026904E02246546825689D42FAD9A5
:1027A00053684B6099608A60516008610168491CF8
:1027B000016030BD42684A6093688B6093685960DD
:1027C000916008610168491C01607047502080F3E6
:1027D0001188BFF34F8FBFF36F8F0A494868401CC1
:1027E000486001280CD10848006810F0FF0F07D09E
:1027F000502080F31188BFF34F8FBFF36F8FFEE738
:10280000704700006C00002004ED00E008494868B3
:1028100028B1401E486001D180F3118870475020D4
:1028200080F31188BFF34F8FBFF36F8FFEE7000077
:102830006C00002070B5002827D0144DA0F10804CA
:102840006168E868014207D1502080F31188BFF326
:102850004F8FBFF36F8FFEE722683AB1502080F3AD
:102860001188BFF34F8FBFF36F8FFEE78143616025
:1028700000F07CF860686968084468602046FFF7EB
:1028800075FEBDE8704000F0DDB970BD5400002059
:102890004FF0E02000210161816105494FF47A7217
:1028A0000968B1FBF2F1491E4161072101617047DE
:1028B0001400002010B5020014D00F48806B38B10E
:1028C000502080F31188BFF34F8FBFF36F8FFEE767
:1028D00000F04CF800211046FFF7ECFC00F0B2F9D4
:1028E000002807D105494FF080500860BFF34F8F93
:1028F000BFF36F8F10BD00001800002004ED00E052
:1029000010B586B00024039405AA04A903A8049472
:10291000FFF720FFDDE903010094CDE9011000235A
:102920000EA11048059A00F0FEF80F4900284863F0
:1029300011D0502080F31188BFF34F8FBFF36F8FFA
:102940004FF0FF3008630120C8614C6106B0BDE85C
:10295000104000F041B806B010BD000049444C459D
:102960000000000075240008180000200248816B58
:10297000491C816370470000180000201448816BD7
:1029800011B1012141627047002141628169B1FAB0
:1029900081F1C1F11F0101EB81020E4951F8223092
:1029A0006BB101EB820101F108034A6852684A6089
:1029B0009A4201D152684A60D16801607047502044
:1029C00080F31188BFF34F8FBFF36F8FFEE70000D6
:1029D00018000020C00300201CB537480168374AA2
:1029E000914207D1502080F31188BFF34F8FBFF37E
:1029F0006F8FFEE700683149491E884207D1502099
:102A000080F31188BFF34F8FBFF36F8FFEE72C4920
:102A100008780190FF20087008788DF800009DF874
:102A200000009DF8002000F0F000904207D05020F8
:102A300080F31188BFF34F8FBFF36F8FFEE79DF8D0
:102A40000000204B00F0500018700720986005E04F
:102A50009DF8002052008DF80020401E9DF80020B7
:102A60001206F5D49860032807D0502080F311880F
:102A7000BFF34F8FBFF36F8FFEE74FF44070986046
:102A8000019808700C482030016841F47001016021
:102A9000016841F070410160FFF7FAFE00205860C4
:102AA000FDF7BEFB0848016841F040410160FDF7B9
:102AB000A3FB00201CBD000000ED00E071C20F412F
:102AC00000E400E06C00002034EF00E02DE9FF5F3F
:102AD0008346DDE90E87994616468A469000FFF741
:102AE0008FFD05001CD05420FFF78AFD040014D090
:102AF0000020256384F85100CDE90240CDE900872C
:102B00004B46324651465846FFF7E4FC2046FFF755
:102B100009FC012004B0BDE8F09F2846FFF78AFEBB
:102B20004FF0FF30F6E7F0B585B0DDE90B640A9DA4
:102B3000A6B1DCB1542700972663022684F85160C1
:102B4000002604AFCDE90246CDE90057FFF7C2FCED
:102B50002046FFF7E7FB049805B0F0BD502080F356
:102B60001188BFF34F8FBFF36F8FFEE7502080F3C4
:102B70001188BFF34F8FBFF36F8FFEE72DE9F04150
:102B80002E4C0027A06B40B1206A401C2062606A76
:102B900000B101273846BDE8F0816669761C6661A0
:102BA00013D16068006838B1502080F31188BFF3FA
:102BB0004F8FBFF36F8FFEE76068A1686160A06010
:102BC000A06A401CA062FFF7F7FC206BDFF8708062
:102BD000864209D36068006880B16068C068C568D3
:102BE000686886420DD220632068C06A00EB8001CD
:102BF00058F821000128CAD90127C8E74FF0FF3053
:102C0000F1E7281DFFF792FDA86A18B105F1180039
:102C1000FFF78CFDE86A0121A26981401143A1619F
:102C200000EB800108EB8100291DFFF7C3FDE86A76
:102C30002168C96A8842CDD30127CBE7180000205C
:102C4000C00300202DE9F0472C4D00242746A86B37
:102C500038B1FFF7BBFDA86B401EA863A86B40B15D
:102C600046E0502080F31188BFF34F8FBFF36F8F82
:102C7000FEE72969224E0120D1B3A6F1B4098046AE
:102C80003068E8B1F068C46804F11800FFF74EFD41
:102C9000201DFFF74BFDE06AAA6908FA00F1114315
:102CA000A96100EB800109EB8100211DFFF782FD86
:102CB000E06A2968C96A8842E2D3C5F82480DFE760
:102CC0000CB1FFF779FC2C6A44B14646FFF756FF7A
:102CD00000B16E62641EF9D100202862686A38B1C2
:102CE0000849012738070860BFF34F8FBFF36F8F84
:102CF000FFF78CFD3846BDE8F08700001800002083
:102D00007404002004ED00E03C2D0008731C000852
:102D10000000000000000000800000000000000033
:102D20000000000000000000000000000102030499
:102D30000607080900000000010203044D6F746FCC
:102D400072000000642D00080000002084000000D4
:102D500058210008E82D000884000020EC480000FD
:102D600068210008000000000000000001000000D1
:102D700010000000000000000024F400000000002B
:102D80000000000000000000000000000000000043
:102D90000000000000000000000000000000000033
:102DA0000000000000000000000000000000000023
:102DB0000000000000000000000000000000000013
:102DC0000000000000000000000000000000000003
:102DD00000000000AAAAAAAA0000000000FFFFFF4E
:082DE000FFFFFFFFFC000000F3
:04000005080001C529
:00000001FF
